:1000000019C018951895189518951895189518955C
:1000100018951895189518951895F6C0189518956F
:10002000189518951895189518951895189538C11C
:10003000189518958FEF8DBFC8EDE0EC4E2E84E03B
:100040008EBFD4E0F4E05F2EA89584B7082E877F9A
:1000500084BF88E199278093600090936000EEEF61
:10006000F3E0A0E0B1E088278D933197E9F76624AB
:1000700082E38093000173D06DD080E08093800094
:1000800082E08093810070E070BF789470916F007F
:10009000716070936F0070916F00716070936F006A
:1000A00070B7786070BF82E080938100A0E0B1E01B
:1000B0008C918093B300A0E0B1E08C9188BDA0E06A
:1000C000B1E08C918093B400A9E2B0E00C9104FB04
:1000D00081E00EF480E08F93009100010F3F81E0FA
:1000E00008F080E09F918923882309F405C0A0E0EF
:1000F000B1E08C91875E8C93A9E2B0E00C9102FB99
:1001000081E00EF480E08F9300910001003080E0E8
:1001100010F009F081E09F918923882309F405C03C
:10012000A0E0B1E08C9189518C93A0E0B1E08C917A
:100130008093B300A0E0B1E08C9188BDA0E0B1E075
:100140008C918093B40084EF91E0F6D1BDCFF89408
:10015000FFCF08951ED024D00BD048D00895209A08
:10016000289857985F9A52985A9A54985C9A08958A
:100170007091B0007F777093B00074B57F7D74BDCF
:100180007091B0007F7D7093B000299A2A9A439AAB
:100190000895239A219A559A229A539A3B9A089540
:1001A00074B5706274BD74B5726074BD74B57160FD
:1001B00074BD75B5716075BD7091B0007068709355
:1001C000B0007091B00070627093B0007091B00098
:1001D00072607093B0007091B00071607093B00065
:1001E0007091B10071607093B100089570917B00BF
:1001F000706470937B0070917F00716070937F00DA
:1002000070B7786070BF08950F921F922F923F923F
:100210004F925F927F92AF92BF920F931F932F9353
:100220003F934F935F936F937F938F939F93AF937E
:10023000BF93CF93DF93EF93FF938FB78F93A0E09C
:10024000B1E08C918093B300A0E0B1E08C9188BDC7
:10025000A0E0B1E08C918093B40081E08093020132
:100260006ED080E0809303018F918FBFFF91EF915B
:10027000DF91CF91BF91AF919F918F917F916F91BE
:100280005F914F913F912F911F910F91BF90AF9030
:100290007F905F904F903F902F901F900F901895F8
:1002A0000F921F922F923F924F925F927F92AF9246
:1002B000BF920F931F932F933F934F935F936F932F
:1002C0007F938F939F93AF93BF93CF93DF93EF93DE
:1002D000FF938FB78F9300910301083C09F004C08E
:1002E00080E0809302012BD0A3E0B1E08C918F5F7E
:1002F0008C9300910301083C10F009F001C003C089
:1003000088EC809303018F918FBFFF91EF91DF9174
:10031000CF91BF91AF919F918F917F916F915F919D
:100320004F913F912F911F910F91BF90AF907F9070
:100330005F904F903F902F901F900F9018950091D5
:100340000401003009F02AC0A0E5B0E00C9105FBE3
:1003500081E00EF480E08F9300910201013081E092
:1003600009F080E09F91892B882309F416C07091D1
:10037000B0007F7D7093B0007091B0007068709392
:10038000B00072E070937C0081E08093040181E012
:1003900090E09093850080938400C4C0013009F000
:1003A00022C0A0E5B0E00C9105FB81E00EF080E0FA
:1003B0008F9300910201013081E009F080E09F916C
:1003C000892B882309F40EC02A9A439871E0709310
:1003D0007C0082E08093040181E090E090938500AE
:1003E000809384009FC0023009F028C0A0E5B0E0EF
:1003F0000C9105FB81E00EF480E08F9300910201E7
:10040000013081E009F080E09F91892B882309F475
:1004100014C07091B0007F777093B00074B57062B3
:1004200074BD70E070937C0083E08093040181E0F0
:1004300090E0909385008093840074C0033009F0AD
:1004400022C0A0E5B0E00C9105FB81E00EF080E059
:100450008F9300910201013081E009F080E09F91CB
:10046000892B882309F40EC0439A299872E070936F
:100470007C0084E08093040181E090E0909385000B
:10048000809384004FC0043009F028C0A0E5B0E09C
:100490000C9105FB81E00EF480E08F930091020146
:1004A000013081E009F080E09F91892B882309F4D5
:1004B00014C074B57F7D74BD7091B000706270938C
:1004C000B00071E070937C0085E08093040181E0CE
:1004D00090E0909385008093840024C0053009F05B
:1004E00021C0A0E5B0E00C9105FB81E00EF080E0BA
:1004F0008F9300910201013081E009F080E09F912B
:10050000892B882309F40EC0299A2A9870E07093E9
:100510007C0080E08093040181E090E0909385006E
:100520008093840008953197F1F70895689462F8F4
:100530000895E89462F80895EF93FF93EE27E82B6F
:10054000E92B31F0E0EDF7E03197F1F70197D1F7C2
:06055000FF91EF910895F8
:00000001FF
